{"abi":[{"type":"constructor","inputs":[],"stateMutability":"nonpayable"},{"type":"function","name":"ejecutarArbitraje","inputs":[{"name":"poolPrestamo","type":"address","internalType":"address"},{"name":"poolVenta","type":"address","internalType":"address"},{"name":"token0","type":"address","internalType":"address"},{"name":"token1","type":"address","internalType":"address"},{"name":"montoPrestamo","type":"uint256","internalType":"uint256"}],"outputs":[],"stateMutability":"nonpayable"},{"type":"function","name":"owner","inputs":[],"outputs":[{"name":"","type":"address","internalType":"address"}],"stateMutability":"view"},{"type":"function","name":"retirar","inputs":[{"name":"token","type":"address","internalType":"address"}],"outputs":[],"stateMutability":"nonpayable"},{"type":"function","name":"uniswapV2Call","inputs":[{"name":"","type":"address","internalType":"address"},{"name":"amount0","type":"uint256","internalType":"uint256"},{"name":"","type":"uint256","internalType":"uint256"},{"name":"data","type":"bytes","internalType":"bytes"}],"outputs":[],"stateMutability":"nonpayable"}],"bytecode":{"object":"0x6080604052348015600e575f5ffd5b50335f5f6101000a81548173ffffffffffffffffffffffffffffffffffffffff021916908373ffffffffffffffffffffffffffffffffffffffff160217905550610ea68061005b5f395ff3fe608060405234801561000f575f5ffd5b506004361061004a575f3560e01c806310d1e85c1461004e5780635b5bfa551461006a5780638da5cb5b14610086578063ab228c19146100a4575b5f5ffd5b6100686004803603810190610063919061077d565b6100c0565b005b610084600480360381019061007f9190610801565b610351565b005b61008e61047c565b60405161009b9190610887565b60405180910390f35b6100be60048036038101906100b991906108a0565b6104a0565b005b5f5f5f5f85858101906100d39190610906565b93509350935093508273ffffffffffffffffffffffffffffffffffffffff1663a9059cbb858a6040518363ffffffff1660e01b8152600401610116929190610979565b6020604051808303815f875af1158015610132573d5f5f3e3d5ffd5b505050506040513d601f19601f8201168201806040525081019061015691906109d5565b610195576040517f08c379a000000000000000000000000000000000000000000000000000000000815260040161018c90610a5a565b60405180910390fd5b8373ffffffffffffffffffffffffffffffffffffffff1663022c0d9f5f7fffffffffffffffffffffffffffffffffffffffffffffffffffffffffffffffff305f67ffffffffffffffff8111156101ee576101ed610a78565b5b6040519080825280601f01601f1916602001820160405280156102205781602001600182028036833780820191505090505b506040518563ffffffff1660e01b81526004016102409493929190610b57565b5f604051808303815f87803b158015610257575f5ffd5b505af1158015610269573d5f5f3e3d5ffd5b505050505f6103e86103eb8361027f9190610bce565b6102899190610c3c565b90508273ffffffffffffffffffffffffffffffffffffffff1663a9059cbb33836040518363ffffffff1660e01b81526004016102c6929190610979565b6020604051808303815f875af11580156102e2573d5f5f3e3d5ffd5b505050506040513d601f19601f8201168201806040525081019061030691906109d5565b610345576040517f08c379a000000000000000000000000000000000000000000000000000000000815260040161033c90610cb6565b60405180910390fd5b50505050505050505050565b5f5f9054906101000a900473ffffffffffffffffffffffffffffffffffffffff1673ffffffffffffffffffffffffffffffffffffffff163373ffffffffffffffffffffffffffffffffffffffff16146103df576040517f08c379a00000000000000000000000000000000000000000000000000000000081526004016103d690610d1e565b60405180910390fd5b5f848484846040516020016103f79493929190610d3c565b60405160208183030381529060405290508573ffffffffffffffffffffffffffffffffffffffff1663022c0d9f835f30856040518563ffffffff1660e01b81526004016104479493929190610d7f565b5f604051808303815f87803b15801561045e575f5ffd5b505af1158015610470573d5f5f3e3d5ffd5b50505050505050505050565b5f5f9054906101000a900473ffffffffffffffffffffffffffffffffffffffff1681565b5f5f9054906101000a900473ffffffffffffffffffffffffffffffffffffffff1673ffffffffffffffffffffffffffffffffffffffff163373ffffffffffffffffffffffffffffffffffffffff161461052e576040517f08c379a000000000000000000000000000000000000000000000000000000000815260040161052590610d1e565b60405180910390fd5b5f8173ffffffffffffffffffffffffffffffffffffffff166370a08231306040518263ffffffff1660e01b81526004016105689190610887565b602060405180830381865afa158015610583573d5f5f3e3d5ffd5b505050506040513d601f19601f820116820180604052508101906105a79190610ddd565b90508173ffffffffffffffffffffffffffffffffffffffff1663a9059cbb5f5f9054906101000a900473ffffffffffffffffffffffffffffffffffffffff16836040518363ffffffff1660e01b8152600401610604929190610979565b6020604051808303815f875af1158015610620573d5f5f3e3d5ffd5b505050506040513d601f19601f8201168201806040525081019061064491906109d5565b610683576040517f08c379a000000000000000000000000000000000000000000000000000000000815260040161067a90610e52565b60405180910390fd5b5050565b5f5ffd5b5f5ffd5b5f73ffffffffffffffffffffffffffffffffffffffff82169050919050565b5f6106b88261068f565b9050919050565b6106c8816106ae565b81146106d2575f5ffd5b50565b5f813590506106e3816106bf565b92915050565b5f819050919050565b6106fb816106e9565b8114610705575f5ffd5b50565b5f81359050610716816106f2565b92915050565b5f5ffd5b5f5ffd5b5f5ffd5b5f5f83601f84011261073d5761073c61071c565b5b8235905067ffffffffffffffff81111561075a57610759610720565b5b60208301915083600182028301111561077657610775610724565b5b9250929050565b5f5f5f5f5f6080868803121561079657610795610687565b5b5f6107a3888289016106d5565b95505060206107b488828901610708565b94505060406107c588828901610708565b935050606086013567ffffffffffffffff8111156107e6576107e561068b565b5b6107f288828901610728565b92509250509295509295909350565b5f5f5f5f5f60a0868803121561081a57610819610687565b5b5f610827888289016106d5565b9550506020610838888289016106d5565b9450506040610849888289016106d5565b935050606061085a888289016106d5565b925050608061086b88828901610708565b9150509295509295909350565b610881816106ae565b82525050565b5f60208201905061089a5f830184610878565b92915050565b5f602082840312156108b5576108b4610687565b5b5f6108c2848285016106d5565b91505092915050565b5f6108d58261068f565b9050919050565b6108e5816108cb565b81146108ef575f5ffd5b50565b5f81359050610900816108dc565b92915050565b5f5f5f5f6080858703121561091e5761091d610687565b5b5f61092b878288016108f2565b945050602061093c878288016108f2565b935050604061094d878288016108f2565b925050606061095e87828801610708565b91505092959194509250565b610973816106e9565b82525050565b5f60408201905061098c5f830185610878565b610999602083018461096a565b9392505050565b5f8115159050919050565b6109b4816109a0565b81146109be575f5ffd5b50565b5f815190506109cf816109ab565b92915050565b5f602082840312156109ea576109e9610687565b5b5f6109f7848285016109c1565b91505092915050565b5f82825260208201905092915050565b7f5472616e7366657220746f6b656e302066616c6c69646f0000000000000000005f82015250565b5f610a44601783610a00565b9150610a4f82610a10565b602082019050919050565b5f6020820190508181035f830152610a7181610a38565b9050919050565b7f4e487b71000000000000000000000000000000000000000000000000000000005f52604160045260245ffd5b5f819050919050565b5f819050919050565b5f610ad1610acc610ac784610aa5565b610aae565b6106e9565b9050919050565b610ae181610ab7565b82525050565b5f81519050919050565b5f82825260208201905092915050565b8281835e5f83830152505050565b5f601f19601f8301169050919050565b5f610b2982610ae7565b610b338185610af1565b9350610b43818560208601610b01565b610b4c81610b0f565b840191505092915050565b5f608082019050610b6a5f830187610ad8565b610b77602083018661096a565b610b846040830185610878565b8181036060830152610b968184610b1f565b905095945050505050565b7f4e487b71000000000000000000000000000000000000000000000000000000005f52601160045260245ffd5b5f610bd8826106e9565b9150610be3836106e9565b9250828202610bf1816106e9565b91508282048414831517610c0857610c07610ba1565b5b5092915050565b7f4e487b71000000000000000000000000000000000000000000000000000000005f52601260045260245ffd5b5f610c46826106e9565b9150610c51836106e9565b925082610c6157610c60610c0f565b5b828204905092915050565b7f5472616e736665722064657564612066616c6c69646f000000000000000000005f82015250565b5f610ca0601683610a00565b9150610cab82610c6c565b602082019050919050565b5f6020820190508181035f830152610ccd81610c94565b9050919050565b7f4e6f206175746f72697a61646f000000000000000000000000000000000000005f82015250565b5f610d08600d83610a00565b9150610d1382610cd4565b602082019050919050565b5f6020820190508181035f830152610d3581610cfc565b9050919050565b5f608082019050610d4f5f830187610878565b610d5c6020830186610878565b610d696040830185610878565b610d76606083018461096a565b95945050505050565b5f608082019050610d925f83018761096a565b610d9f6020830186610ad8565b610dac6040830185610878565b8181036060830152610dbe8184610b1f565b905095945050505050565b5f81519050610dd7816106f2565b92915050565b5f60208284031215610df257610df1610687565b5b5f610dff84828501610dc9565b91505092915050565b7f5472616e736665722072657469726f2066616c6c69646f0000000000000000005f82015250565b5f610e3c601783610a00565b9150610e4782610e08565b602082019050919050565b5f6020820190508181035f830152610e6981610e30565b905091905056fea264697066735822122068d07300f42fb14017a49779aaaeabc5aef4e1bc159fc91b14741b912c168afa64736f6c63430008220033","linkReferences":{}},"methodIdentifiers":{"ejecutarArbitraje(address,address,address,address,uint256)":"5b5bfa55","owner()":"8da5cb5b","retirar(address)":"ab228c19","uniswapV2Call(address,uint256,uint256,bytes)":"10d1e85c"},"id":0}